{
  "contractName": "ProductDesign",
  "abi": [
    {
      "constant": false,
      "inputs": [
        {
          "name": "_sku",
          "type": "string"
        },
        {
          "name": "_signedDesign",
          "type": "string"
        }
      ],
      "name": "createDesign",
      "outputs": [
        {
          "name": "",
          "type": "string"
        }
      ],
      "payable": false,
      "stateMutability": "nonpayable",
      "type": "function"
    },
    {
      "constant": true,
      "inputs": [
        {
          "name": "sku",
          "type": "string"
        }
      ],
      "name": "getDesign",
      "outputs": [
        {
          "name": "",
          "type": "string"
        }
      ],
      "payable": false,
      "stateMutability": "view",
      "type": "function"
    }
  ],
  "bytecode": "0x608060405234801561001057600080fd5b50610703806100206000396000f30060806040526004361061004c576000357c0100000000000000000000000000000000000000000000000000000000900463ffffffff168063082f4037146100515780630d18064b14610179575b600080fd5b34801561005d57600080fd5b506100fe600480360381019080803590602001908201803590602001908080601f0160208091040260200160405190810160405280939291908181526020018383808284378201915050505050509192919290803590602001908201803590602001908080601f016020809104026020016040519081016040528093929190818152602001838380828437820191505050505050919291929050505061025b565b6040518080602001828103825283818151815260200191508051906020019080838360005b8381101561013e578082015181840152602081019050610123565b50505050905090810190601f16801561016b5780820380516001836020036101000a031916815260200191505b509250505060405180910390f35b34801561018557600080fd5b506101e0600480360381019080803590602001908201803590602001908080601f0160208091040260200160405190810160405280939291908181526020018383808284378201915050505050509192919290505050610522565b6040518080602001828103825283818151815260200191508051906020019080838360005b83811015610220578082015181840152602081019050610205565b50505050905090810190601f16801561024d5780820380516001836020036101000a031916815260200191505b509250505060405180910390f35b6060600115156001846040518082805190602001908083835b6020831015156102995780518252602082019150602081019050602083039250610274565b6001836020036101000a038019825116818451168082178552505050505050905001915050908152602001604051809103902060020160009054906101000a900460ff161515141515156102ec57600080fd5b336000806101000a81548173ffffffffffffffffffffffffffffffffffffffff021916908373ffffffffffffffffffffffffffffffffffffffff160217905550606060405190810160405280848152602001838152602001600115158152506001846040518082805190602001908083835b602083101515610383578051825260208201915060208101905060208303925061035e565b6001836020036101000a038019825116818451168082178552505050505050905001915050908152602001604051809103902060008201518160000190805190602001906103d2929190610632565b5060208201518160010190805190602001906103ef929190610632565b5060408201518160020160006101000a81548160ff0219169083151502179055509050506001836040518082805190602001908083835b60208310151561044b5780518252602082019150602081019050602083039250610426565b6001836020036101000a03801982511681845116808217855250505050505090500191505090815260200160405180910390206000018054600181600116156101000203166002900480601f0160208091040260200160405190810160405280929190818152602001828054600181600116156101000203166002900480156105155780601f106104ea57610100808354040283529160200191610515565b820191906000526020600020905b8154815290600101906020018083116104f857829003601f168201915b5050505050905092915050565b60606001826040518082805190602001908083835b60208310151561055c5780518252602082019150602081019050602083039250610537565b6001836020036101000a03801982511681845116808217855250505050505090500191505090815260200160405180910390206001018054600181600116156101000203166002900480601f0160208091040260200160405190810160405280929190818152602001828054600181600116156101000203166002900480156106265780601f106105fb57610100808354040283529160200191610626565b820191906000526020600020905b81548152906001019060200180831161060957829003601f168201915b50505050509050919050565b828054600181600116156101000203166002900490600052602060002090601f016020900481019282601f1061067357805160ff19168380011785556106a1565b828001600101855582156106a1579182015b828111156106a0578251825591602001919060010190610685565b5b5090506106ae91906106b2565b5090565b6106d491905b808211156106d05760008160009055506001016106b8565b5090565b905600a165627a7a723058204fffd652b70cedef60bb95b93406ad7b83b614db8162fadc56359afdc1cd27a40029",
  "source": "pragma solidity ^0.4.18;\n\ncontract ProductDesign {\n\n    struct Design {\n        string sku;\n        string design;\n        bool exists;\n    }\n\n    address createdBy;\n\n    mapping(string => Design) designs;\n\n    function createDesign(string _sku, string _signedDesign) public returns (string) {\n        // Prevent duplicate sku's\n        require(designs[_sku].exists != true);\n\n        // Add product design to blockchain\n        createdBy = msg.sender;\n        designs[_sku] = Design({ sku: _sku, design: _signedDesign, exists: true });\n\n        return designs[_sku].sku;\n    }\n\n    function getDesign(string sku) public view returns (string) {\n        return designs[sku].design;\n    }\n\n\n}",
  "sourcePath": "/home/antoroko/Desktop/Thesis/project/provJewellery/contracts/ProductDesign.sol",
  "compiler": {
    "name": "solc",
    "version": "0.4.23+commit.124ca40d.Emscripten.clang"
  },
  "schemaVersion": "2.0.0",
  "updatedAt": "2018-05-13T13:52:47.795Z"
}