{
  "contractName": "ProductDesign",
  "abi": [
    {
      "constant": false,
      "inputs": [
        {
          "name": "_sku",
          "type": "string"
        },
        {
          "name": "_signedDesign",
          "type": "string"
        }
      ],
      "name": "createDesign",
      "outputs": [
        {
          "name": "",
          "type": "string"
        }
      ],
      "payable": false,
      "stateMutability": "nonpayable",
      "type": "function"
    },
    {
      "constant": true,
      "inputs": [
        {
          "name": "sku",
          "type": "string"
        }
      ],
      "name": "getDesign",
      "outputs": [
        {
          "name": "",
          "type": "string"
        }
      ],
      "payable": false,
      "stateMutability": "view",
      "type": "function"
    }
  ],
  "bytecode": "0x608060405234801561001057600080fd5b5061064a806100206000396000f30060806040526004361061004c576000357c0100000000000000000000000000000000000000000000000000000000900463ffffffff168063082f4037146100515780630d18064b14610179575b600080fd5b34801561005d57600080fd5b506100fe600480360381019080803590602001908201803590602001908080601f0160208091040260200160405190810160405280939291908181526020018383808284378201915050505050509192919290803590602001908201803590602001908080601f016020809104026020016040519081016040528093929190818152602001838380828437820191505050505050919291929050505061025b565b6040518080602001828103825283818151815260200191508051906020019080838360005b8381101561013e578082015181840152602081019050610123565b50505050905090810190601f16801561016b5780820380516001836020036101000a031916815260200191505b509250505060405180910390f35b34801561018557600080fd5b506101e0600480360381019080803590602001908201803590602001908080601f0160208091040260200160405190810160405280939291908181526020018383808284378201915050505050509192919290505050610469565b6040518080602001828103825283818151815260200191508051906020019080838360005b83811015610220578082015181840152602081019050610205565b50505050905090810190601f16801561024d5780820380516001836020036101000a031916815260200191505b509250505060405180910390f35b6060336000806101000a81548173ffffffffffffffffffffffffffffffffffffffff021916908373ffffffffffffffffffffffffffffffffffffffff1602179055506040805190810160405280848152602001838152506001846040518082805190602001908083835b6020831015156102ea57805182526020820191506020810190506020830392506102c5565b6001836020036101000a03801982511681845116808217855250505050505090500191505090815260200160405180910390206000820151816000019080519060200190610339929190610579565b506020820151816001019080519060200190610356929190610579565b509050506001836040518082805190602001908083835b602083101515610392578051825260208201915060208101905060208303925061036d565b6001836020036101000a03801982511681845116808217855250505050505090500191505090815260200160405180910390206000018054600181600116156101000203166002900480601f01602080910402602001604051908101604052809291908181526020018280546001816001161561010002031660029004801561045c5780601f106104315761010080835404028352916020019161045c565b820191906000526020600020905b81548152906001019060200180831161043f57829003601f168201915b5050505050905092915050565b60606001826040518082805190602001908083835b6020831015156104a3578051825260208201915060208101905060208303925061047e565b6001836020036101000a03801982511681845116808217855250505050505090500191505090815260200160405180910390206001018054600181600116156101000203166002900480601f01602080910402602001604051908101604052809291908181526020018280546001816001161561010002031660029004801561056d5780601f106105425761010080835404028352916020019161056d565b820191906000526020600020905b81548152906001019060200180831161055057829003601f168201915b50505050509050919050565b828054600181600116156101000203166002900490600052602060002090601f016020900481019282601f106105ba57805160ff19168380011785556105e8565b828001600101855582156105e8579182015b828111156105e75782518255916020019190600101906105cc565b5b5090506105f591906105f9565b5090565b61061b91905b808211156106175760008160009055506001016105ff565b5090565b905600a165627a7a723058200b2ca1a5f2460812ea0c56b121854bfd9be15a7f5283c58f8d488819da9bd4e20029",
  "source": "pragma solidity ^0.4.18;\n\ncontract ProductDesign {\n\n    struct Design {\n        string sku;\n        string design;\n    }\n\n    address createdBy;\n\n    mapping(string => Design) designs;\n\n    function createDesign(string _sku, string _signedDesign) public returns (string) {\n        createdBy = msg.sender;\n        designs[_sku] = Design({ sku: _sku, design: _signedDesign });\n        return designs[_sku].sku;\n    }\n\n    function getDesign(string sku) public view returns (string) {\n        return designs[sku].design;\n    }\n\n}",
  "sourcePath": "/home/antoroko/Desktop/Thesis/project/provJewellery/contracts/ProductDesign.sol",
  "compiler": {
    "name": "solc",
    "version": "0.4.23+commit.124ca40d.Emscripten.clang"
  },
  "schemaVersion": "2.0.0",
  "updatedAt": "2018-05-11T16:14:40.489Z"
}