{
  "contractName": "ProvJewellery",
  "abi": [
    {
      "constant": false,
      "inputs": [
        {
          "name": "_sku",
          "type": "string"
        },
        {
          "name": "_signedDesign",
          "type": "string"
        }
      ],
      "name": "setProductDesign",
      "outputs": [
        {
          "name": "",
          "type": "string"
        }
      ],
      "payable": false,
      "stateMutability": "nonpayable",
      "type": "function"
    },
    {
      "constant": false,
      "inputs": [
        {
          "name": "_serialNo",
          "type": "string"
        },
        {
          "name": "_signedDesign",
          "type": "string"
        }
      ],
      "name": "setItemDesign",
      "outputs": [
        {
          "name": "",
          "type": "string"
        }
      ],
      "payable": false,
      "stateMutability": "nonpayable",
      "type": "function"
    },
    {
      "constant": false,
      "inputs": [
        {
          "name": "_serialNo",
          "type": "string"
        },
        {
          "name": "_signedOrder",
          "type": "string"
        }
      ],
      "name": "setItemOrder",
      "outputs": [
        {
          "name": "",
          "type": "string"
        }
      ],
      "payable": false,
      "stateMutability": "nonpayable",
      "type": "function"
    },
    {
      "constant": false,
      "inputs": [
        {
          "name": "_serialNo",
          "type": "string"
        },
        {
          "name": "_signedOrderProduct",
          "type": "string"
        }
      ],
      "name": "setItemOrderProduct",
      "outputs": [
        {
          "name": "",
          "type": "string"
        }
      ],
      "payable": false,
      "stateMutability": "nonpayable",
      "type": "function"
    },
    {
      "constant": false,
      "inputs": [
        {
          "name": "_serialNo",
          "type": "string"
        },
        {
          "name": "_signedDelivery",
          "type": "string"
        }
      ],
      "name": "setItemDelivery",
      "outputs": [
        {
          "name": "",
          "type": "string"
        }
      ],
      "payable": false,
      "stateMutability": "nonpayable",
      "type": "function"
    },
    {
      "constant": false,
      "inputs": [
        {
          "name": "_serialNo",
          "type": "string"
        },
        {
          "name": "_signedValidation",
          "type": "string"
        }
      ],
      "name": "setItemValidations",
      "outputs": [
        {
          "name": "",
          "type": "string"
        }
      ],
      "payable": false,
      "stateMutability": "nonpayable",
      "type": "function"
    },
    {
      "constant": false,
      "inputs": [
        {
          "name": "_serialNo",
          "type": "string"
        },
        {
          "name": "_signedWIP",
          "type": "string"
        }
      ],
      "name": "setItemValueAddition",
      "outputs": [
        {
          "name": "",
          "type": "string"
        }
      ],
      "payable": false,
      "stateMutability": "nonpayable",
      "type": "function"
    },
    {
      "constant": false,
      "inputs": [
        {
          "name": "_serialNo",
          "type": "string"
        },
        {
          "name": "_signedOwnership",
          "type": "string"
        }
      ],
      "name": "setItemOwnership",
      "outputs": [
        {
          "name": "",
          "type": "string"
        }
      ],
      "payable": false,
      "stateMutability": "nonpayable",
      "type": "function"
    },
    {
      "constant": true,
      "inputs": [
        {
          "name": "_sku",
          "type": "string"
        }
      ],
      "name": "getProductDesign",
      "outputs": [
        {
          "name": "",
          "type": "string"
        }
      ],
      "payable": false,
      "stateMutability": "view",
      "type": "function"
    },
    {
      "constant": true,
      "inputs": [
        {
          "name": "_serialNo",
          "type": "string"
        }
      ],
      "name": "getItemDesign",
      "outputs": [
        {
          "name": "",
          "type": "string"
        }
      ],
      "payable": false,
      "stateMutability": "view",
      "type": "function"
    },
    {
      "constant": true,
      "inputs": [
        {
          "name": "_serialNo",
          "type": "string"
        }
      ],
      "name": "getItemOrder",
      "outputs": [
        {
          "name": "",
          "type": "string"
        }
      ],
      "payable": false,
      "stateMutability": "view",
      "type": "function"
    },
    {
      "constant": true,
      "inputs": [
        {
          "name": "_serialNo",
          "type": "string"
        }
      ],
      "name": "getItemOrderProduct",
      "outputs": [
        {
          "name": "",
          "type": "string"
        }
      ],
      "payable": false,
      "stateMutability": "view",
      "type": "function"
    },
    {
      "constant": true,
      "inputs": [
        {
          "name": "_serialNo",
          "type": "string"
        }
      ],
      "name": "getItemDelivery",
      "outputs": [
        {
          "name": "",
          "type": "string"
        }
      ],
      "payable": false,
      "stateMutability": "view",
      "type": "function"
    },
    {
      "constant": true,
      "inputs": [
        {
          "name": "_serialNo",
          "type": "string"
        }
      ],
      "name": "getItemValidations",
      "outputs": [
        {
          "name": "prod",
          "type": "string"
        },
        {
          "name": "wip",
          "type": "string"
        }
      ],
      "payable": false,
      "stateMutability": "view",
      "type": "function"
    },
    {
      "constant": true,
      "inputs": [
        {
          "name": "_serialNo",
          "type": "string"
        }
      ],
      "name": "getItemValueAddition",
      "outputs": [
        {
          "name": "",
          "type": "string"
        }
      ],
      "payable": false,
      "stateMutability": "view",
      "type": "function"
    },
    {
      "constant": true,
      "inputs": [
        {
          "name": "_serialNo",
          "type": "string"
        }
      ],
      "name": "getItemOwnership",
      "outputs": [
        {
          "name": "",
          "type": "string"
        }
      ],
      "payable": false,
      "stateMutability": "view",
      "type": "function"
    }
  ],
  "bytecode": "0x608060405234801561001057600080fd5b506127cf806100206000396000f3006080604052600436106100e6576000357c0100000000000000000000000000000000000000000000000000000000900463ffffffff16806307caf9b4146100eb57806316e209a91461021357806328510d5e146102f557806348eb1eff1461041d5780634d6f267a146104ff5780634e13cfc11461062757806360a8cdc11461074f57806374cdfdf41461089d57806387194cde146109c55780638845973814610aa75780638ee0550514610bcf578063968eeb1c14610cb1578063bd16a80a14610dd9578063d4e468aa14610ebb578063fca926ed14610f9d578063ff0b4dfa1461107f575b600080fd5b3480156100f757600080fd5b50610198600480360381019080803590602001908201803590602001908080601f0160208091040260200160405190810160405280939291908181526020018383808284378201915050505050509192919290803590602001908201803590602001908080601f01602080910402602001604051908101604052809392919081815260200183838082843782019150505050505091929192905050506111a7565b6040518080602001828103825283818151815260200191508051906020019080838360005b838110156101d85780820151818401526020810190506101bd565b50505050905090810190601f1680156102055780820380516001836020036101000a031916815260200191505b509250505060405180910390f35b34801561021f57600080fd5b5061027a600480360381019080803590602001908201803590602001908080601f016020809104026020016040519081016040528093929190818152602001838380828437820191505050505050919291929050505061132a565b6040518080602001828103825283818151815260200191508051906020019080838360005b838110156102ba57808201518184015260208101905061029f565b50505050905090810190601f1680156102e75780820380516001836020036101000a031916815260200191505b509250505060405180910390f35b34801561030157600080fd5b506103a2600480360381019080803590602001908201803590602001908080601f0160208091040260200160405190810160405280939291908181526020018383808284378201915050505050509192919290803590602001908201803590602001908080601f016020809104026020016040519081016040528093929190818152602001838380828437820191505050505050919291929050505061143d565b6040518080602001828103825283818151815260200191508051906020019080838360005b838110156103e25780820151818401526020810190506103c7565b50505050905090810190601f16801561040f5780820380516001836020036101000a031916815260200191505b509250505060405180910390f35b34801561042957600080fd5b50610484600480360381019080803590602001908201803590602001908080601f0160208091040260200160405190810160405280939291908181526020018383808284378201915050505050509192919290505050611595565b6040518080602001828103825283818151815260200191508051906020019080838360005b838110156104c45780820151818401526020810190506104a9565b50505050905090810190601f1680156104f15780820380516001836020036101000a031916815260200191505b509250505060405180910390f35b34801561050b57600080fd5b506105ac600480360381019080803590602001908201803590602001908080601f0160208091040260200160405190810160405280939291908181526020018383808284378201915050505050509192919290803590602001908201803590602001908080601f01602080910402602001604051908101604052809392919081815260200183838082843782019150505050505091929192905050506116a8565b6040518080602001828103825283818151815260200191508051906020019080838360005b838110156105ec5780820151818401526020810190506105d1565b50505050905090810190601f1680156106195780820380516001836020036101000a031916815260200191505b509250505060405180910390f35b34801561063357600080fd5b506106d4600480360381019080803590602001908201803590602001908080601f0160208091040260200160405190810160405280939291908181526020018383808284378201915050505050509192919290803590602001908201803590602001908080601f0160208091040260200160405190810160405280939291908181526020018383808284378201915050505050509192919290505050611800565b6040518080602001828103825283818151815260200191508051906020019080838360005b838110156107145780820151818401526020810190506106f9565b50505050905090810190601f1680156107415780820380516001836020036101000a031916815260200191505b509250505060405180910390f35b34801561075b57600080fd5b506107b6600480360381019080803590602001908201803590602001908080601f0160208091040260200160405190810160405280939291908181526020018383808284378201915050505050509192919290505050611958565b604051808060200180602001838103835285818151815260200191508051906020019080838360005b838110156107fa5780820151818401526020810190506107df565b50505050905090810190601f1680156108275780820380516001836020036101000a031916815260200191505b50838103825284818151815260200191508051906020019080838360005b83811015610860578082015181840152602081019050610845565b50505050905090810190601f16801561088d5780820380516001836020036101000a031916815260200191505b5094505050505060405180910390f35b3480156108a957600080fd5b5061094a600480360381019080803590602001908201803590602001908080601f0160208091040260200160405190810160405280939291908181526020018383808284378201915050505050509192919290803590602001908201803590602001908080601f0160208091040260200160405190810160405280939291908181526020018383808284378201915050505050509192919290505050611bb6565b6040518080602001828103825283818151815260200191508051906020019080838360005b8381101561098a57808201518184015260208101905061096f565b50505050905090810190601f1680156109b75780820380516001836020036101000a031916815260200191505b509250505060405180910390f35b3480156109d157600080fd5b50610a2c600480360381019080803590602001908201803590602001908080601f0160208091040260200160405190810160405280939291908181526020018383808284378201915050505050509192919290505050611d0e565b6040518080602001828103825283818151815260200191508051906020019080838360005b83811015610a6c578082015181840152602081019050610a51565b50505050905090810190601f168015610a995780820380516001836020036101000a031916815260200191505b509250505060405180910390f35b348015610ab357600080fd5b50610b54600480360381019080803590602001908201803590602001908080601f0160208091040260200160405190810160405280939291908181526020018383808284378201915050505050509192919290803590602001908201803590602001908080601f0160208091040260200160405190810160405280939291908181526020018383808284378201915050505050509192919290505050611e21565b6040518080602001828103825283818151815260200191508051906020019080838360005b83811015610b94578082015181840152602081019050610b79565b50505050905090810190601f168015610bc15780820380516001836020036101000a031916815260200191505b509250505060405180910390f35b348015610bdb57600080fd5b50610c36600480360381019080803590602001908201803590602001908080601f0160208091040260200160405190810160405280939291908181526020018383808284378201915050505050509192919290505050612005565b6040518080602001828103825283818151815260200191508051906020019080838360005b83811015610c76578082015181840152602081019050610c5b565b50505050905090810190601f168015610ca35780820380516001836020036101000a031916815260200191505b509250505060405180910390f35b348015610cbd57600080fd5b50610d5e600480360381019080803590602001908201803590602001908080601f0160208091040260200160405190810160405280939291908181526020018383808284378201915050505050509192919290803590602001908201803590602001908080601f0160208091040260200160405190810160405280939291908181526020018383808284378201915050505050509192919290505050612118565b6040518080602001828103825283818151815260200191508051906020019080838360005b83811015610d9e578082015181840152602081019050610d83565b50505050905090810190601f168015610dcb5780820380516001836020036101000a031916815260200191505b509250505060405180910390f35b348015610de557600080fd5b50610e40600480360381019080803590602001908201803590602001908080601f0160208091040260200160405190810160405280939291908181526020018383808284378201915050505050509192919290505050612270565b6040518080602001828103825283818151815260200191508051906020019080838360005b83811015610e80578082015181840152602081019050610e65565b50505050905090810190601f168015610ead5780820380516001836020036101000a031916815260200191505b509250505060405180910390f35b348015610ec757600080fd5b50610f22600480360381019080803590602001908201803590602001908080601f0160208091040260200160405190810160405280939291908181526020018383808284378201915050505050509192919290505050612383565b6040518080602001828103825283818151815260200191508051906020019080838360005b83811015610f62578082015181840152602081019050610f47565b50505050905090810190601f168015610f8f5780820380516001836020036101000a031916815260200191505b509250505060405180910390f35b348015610fa957600080fd5b50611004600480360381019080803590602001908201803590602001908080601f0160208091040260200160405190810160405280939291908181526020018383808284378201915050505050509192919290505050612496565b6040518080602001828103825283818151815260200191508051906020019080838360005b83811015611044578082015181840152602081019050611029565b50505050905090810190601f1680156110715780820380516001836020036101000a031916815260200191505b509250505060405180910390f35b34801561108b57600080fd5b5061112c600480360381019080803590602001908201803590602001908080601f0160208091040260200160405190810160405280939291908181526020018383808284378201915050505050509192919290803590602001908201803590602001908080601f01602080910402602001604051908101604052809392919081815260200183838082843782019150505050505091929192905050506125a6565b6040518080602001828103825283818151815260200191508051906020019080838360005b8381101561116c578082015181840152602081019050611151565b50505050905090810190601f1680156111995780820380516001836020036101000a031916815260200191505b509250505060405180910390f35b60606001836040518082805190602001908083835b6020831015156111e157805182526020820191506020810190506020830392506111bc565b6001836020036101000a0380198251168184511680821785525050505050509050019150509081526020016040518091039020600d016080604051908101604052808581526020018481526020013373ffffffffffffffffffffffffffffffffffffffff168152602001600115158152509080600181540180825580915050906001820390600052602060002090600302016000909192909190915060008201518160000190805190602001906112999291906126fe565b5060208201518160010190805190602001906112b69291906126fe565b5060408201518160020160006101000a81548173ffffffffffffffffffffffffffffffffffffffff021916908373ffffffffffffffffffffffffffffffffffffffff16021790555060608201518160020160146101000a81548160ff02191690831515021790555050505082905092915050565b60606001826040518082805190602001908083835b602083101515611364578051825260208201915060208101905060208303925061133f565b6001836020036101000a03801982511681845116808217855250505050505090500191505090815260200160405180910390206007016001018054600181600116156101000203166002900480601f0160208091040260200160405190810160405280929190818152602001828054600181600116156101000203166002900480156114315780601f1061140657610100808354040283529160200191611431565b820191906000526020600020905b81548152906001019060200180831161141457829003601f168201915b50505050509050919050565b60606080604051908101604052808481526020018381526020013373ffffffffffffffffffffffffffffffffffffffff168152602001600115158152506001846040518082805190602001908083835b6020831015156114b2578051825260208201915060208101905060208303925061148d565b6001836020036101000a0380198251168184511680821785525050505050509050019150509081526020016040518091039020600a0160008201518160000190805190602001906115049291906126fe565b5060208201518160010190805190602001906115219291906126fe565b5060408201518160020160006101000a81548173ffffffffffffffffffffffffffffffffffffffff021916908373ffffffffffffffffffffffffffffffffffffffff16021790555060608201518160020160146101000a81548160ff02191690831515021790555090505082905092915050565b60606001826040518082805190602001908083835b6020831015156115cf57805182526020820191506020810190506020830392506115aa565b6001836020036101000a0380198251168184511680821785525050505050509050019150509081526020016040518091039020600a016001018054600181600116156101000203166002900480601f01602080910402602001604051908101604052809291908181526020018280546001816001161561010002031660029004801561169c5780601f106116715761010080835404028352916020019161169c565b820191906000526020600020905b81548152906001019060200180831161167f57829003601f168201915b50505050509050919050565b60606080604051908101604052808481526020018381526020013373ffffffffffffffffffffffffffffffffffffffff168152602001600115158152506001846040518082805190602001908083835b60208310151561171d57805182526020820191506020810190506020830392506116f8565b6001836020036101000a0380198251168184511680821785525050505050509050019150509081526020016040518091039020600e01600082015181600001908051906020019061176f9291906126fe565b50602082015181600101908051906020019061178c9291906126fe565b5060408201518160020160006101000a81548173ffffffffffffffffffffffffffffffffffffffff021916908373ffffffffffffffffffffffffffffffffffffffff16021790555060608201518160020160146101000a81548160ff02191690831515021790555090505082905092915050565b60606080604051908101604052808481526020018381526020013373ffffffffffffffffffffffffffffffffffffffff168152602001600115158152506001846040518082805190602001908083835b6020831015156118755780518252602082019150602081019050602083039250611850565b6001836020036101000a038019825116818451168082178552505050505050905001915050908152602001604051809103902060010160008201518160000190805190602001906118c79291906126fe565b5060208201518160010190805190602001906118e49291906126fe565b5060408201518160020160006101000a81548173ffffffffffffffffffffffffffffffffffffffff021916908373ffffffffffffffffffffffffffffffffffffffff16021790555060608201518160020160146101000a81548160ff02191690831515021790555090505082905092915050565b6060806001836040518082805190602001908083835b602083101515611993578051825260208201915060208101905060208303925061196e565b6001836020036101000a0380198251168184511680821785525050505050509050019150509081526020016040518091039020600d0160008154811015156119d757fe5b90600052602060002090600302016001016001846040518082805190602001908083835b602083101515611a2057805182526020820191506020810190506020830392506119fb565b6001836020036101000a0380198251168184511680821785525050505050509050019150509081526020016040518091039020600d016001815481101515611a6457fe5b9060005260206000209060030201600101818054600181600116156101000203166002900480601f016020809104026020016040519081016040528092919081815260200182805460018160011615610100020316600290048015611b0a5780601f10611adf57610100808354040283529160200191611b0a565b820191906000526020600020905b815481529060010190602001808311611aed57829003601f168201915b50505050509150808054600181600116156101000203166002900480601f016020809104026020016040519081016040528092919081815260200182805460018160011615610100020316600290048015611ba65780601f10611b7b57610100808354040283529160200191611ba6565b820191906000526020600020905b815481529060010190602001808311611b8957829003601f168201915b5050505050905091509150915091565b60606080604051908101604052808481526020018381526020013373ffffffffffffffffffffffffffffffffffffffff168152602001600115158152506001846040518082805190602001908083835b602083101515611c2b5780518252602082019150602081019050602083039250611c06565b6001836020036101000a03801982511681845116808217855250505050505090500191505090815260200160405180910390206007016000820151816000019080519060200190611c7d9291906126fe565b506020820151816001019080519060200190611c9a9291906126fe565b5060408201518160020160006101000a81548173ffffffffffffffffffffffffffffffffffffffff021916908373ffffffffffffffffffffffffffffffffffffffff16021790555060608201518160020160146101000a81548160ff02191690831515021790555090505082905092915050565b60606001826040518082805190602001908083835b602083101515611d485780518252602082019150602081019050602083039250611d23565b6001836020036101000a03801982511681845116808217855250505050505090500191505090815260200160405180910390206011016001018054600181600116156101000203166002900480601f016020809104026020016040519081016040528092919081815260200182805460018160011615610100020316600290048015611e155780601f10611dea57610100808354040283529160200191611e15565b820191906000526020600020905b815481529060010190602001808311611df857829003601f168201915b50505050509050919050565b6060600115156000846040518082805190602001908083835b602083101515611e5f5780518252602082019150602081019050602083039250611e3a565b6001836020036101000a038019825116818451168082178552505050505050905001915050908152602001604051809103902060020160149054906101000a900460ff16151514151515611eb257600080fd5b6080604051908101604052808481526020018381526020013373ffffffffffffffffffffffffffffffffffffffff168152602001600115158152506000846040518082805190602001908083835b602083101515611f255780518252602082019150602081019050602083039250611f00565b6001836020036101000a03801982511681845116808217855250505050505090500191505090815260200160405180910390206000820151816000019080519060200190611f749291906126fe565b506020820151816001019080519060200190611f919291906126fe565b5060408201518160020160006101000a81548173ffffffffffffffffffffffffffffffffffffffff021916908373ffffffffffffffffffffffffffffffffffffffff16021790555060608201518160020160146101000a81548160ff02191690831515021790555090505082905092915050565b60606001826040518082805190602001908083835b60208310151561203f578051825260208201915060208101905060208303925061201a565b6001836020036101000a03801982511681845116808217855250505050505090500191505090815260200160405180910390206001016001018054600181600116156101000203166002900480601f01602080910402602001604051908101604052809291908181526020018280546001816001161561010002031660029004801561210c5780601f106120e15761010080835404028352916020019161210c565b820191906000526020600020905b8154815290600101906020018083116120ef57829003601f168201915b50505050509050919050565b60606080604051908101604052808481526020018381526020013373ffffffffffffffffffffffffffffffffffffffff168152602001600115158152506001846040518082805190602001908083835b60208310151561218d5780518252602082019150602081019050602083039250612168565b6001836020036101000a038019825116818451168082178552505050505050905001915050908152602001604051809103902060110160008201518160000190805190602001906121df9291906126fe565b5060208201518160010190805190602001906121fc9291906126fe565b5060408201518160020160006101000a81548173ffffffffffffffffffffffffffffffffffffffff021916908373ffffffffffffffffffffffffffffffffffffffff16021790555060608201518160020160146101000a81548160ff02191690831515021790555090505082905092915050565b60606001826040518082805190602001908083835b6020831015156122aa5780518252602082019150602081019050602083039250612285565b6001836020036101000a03801982511681845116808217855250505050505090500191505090815260200160405180910390206004016001018054600181600116156101000203166002900480601f0160208091040260200160405190810160405280929190818152602001828054600181600116156101000203166002900480156123775780601f1061234c57610100808354040283529160200191612377565b820191906000526020600020905b81548152906001019060200180831161235a57829003601f168201915b50505050509050919050565b60606001826040518082805190602001908083835b6020831015156123bd5780518252602082019150602081019050602083039250612398565b6001836020036101000a0380198251168184511680821785525050505050509050019150509081526020016040518091039020600e016001018054600181600116156101000203166002900480601f01602080910402602001604051908101604052809291908181526020018280546001816001161561010002031660029004801561248a5780601f1061245f5761010080835404028352916020019161248a565b820191906000526020600020905b81548152906001019060200180831161246d57829003601f168201915b50505050509050919050565b60606000826040518082805190602001908083835b6020831015156124d057805182526020820191506020810190506020830392506124ab565b6001836020036101000a03801982511681845116808217855250505050505090500191505090815260200160405180910390206001018054600181600116156101000203166002900480601f01602080910402602001604051908101604052809291908181526020018280546001816001161561010002031660029004801561259a5780601f1061256f5761010080835404028352916020019161259a565b820191906000526020600020905b81548152906001019060200180831161257d57829003601f168201915b50505050509050919050565b60606080604051908101604052808481526020018381526020013373ffffffffffffffffffffffffffffffffffffffff168152602001600115158152506001846040518082805190602001908083835b60208310151561261b57805182526020820191506020810190506020830392506125f6565b6001836020036101000a0380198251168184511680821785525050505050509050019150509081526020016040518091039020600401600082015181600001908051906020019061266d9291906126fe565b50602082015181600101908051906020019061268a9291906126fe565b5060408201518160020160006101000a81548173ffffffffffffffffffffffffffffffffffffffff021916908373ffffffffffffffffffffffffffffffffffffffff16021790555060608201518160020160146101000a81548160ff02191690831515021790555090505082905092915050565b828054600181600116156101000203166002900490600052602060002090601f016020900481019282601f1061273f57805160ff191683800117855561276d565b8280016001018555821561276d579182015b8281111561276c578251825591602001919060010190612751565b5b50905061277a919061277e565b5090565b6127a091905b8082111561279c576000816000905550600101612784565b5090565b905600a165627a7a723058203de66554355b048918299af8b745442842d89cc3c114612cdb9e7277247794aa0029",
  "source": "pragma solidity ^0.4.18;\n\ncontract ProvJewellery {\n\n    struct Record {\n        string id;\n        string object;\n        address createdBy;\n        bool exists;\n    }\n\n    struct Jewellery {\n        string serialNo;\n        Record design;\n        Record order;\n        Record orderProduct;\n        Record delivery;\n        Record[] validations;\n        Record valueAddition;\n        Record ownership;\n        bool exists;\n    }\n\n    mapping(string => Record) designs;\n    mapping(string => Jewellery) jewelleries;\n\n    function setProductDesign(string _sku, string _signedDesign)\n        public returns (string) {\n        // Prevent overwriting a product design\n        require(designs[_sku].exists != true);\n\n        // Add product design to blockchain\n        designs[_sku] = Record({\n            id: _sku, object: _signedDesign, createdBy: msg.sender,\n            exists: true });\n\n        return _sku;\n    }\n\n    function setItemDesign(string _serialNo, string _signedDesign)\n        public returns (string) {\n        // Add an items design to jewelleries list\n        jewelleries[_serialNo].design = Record({\n            id: _serialNo, object: _signedDesign, createdBy: msg.sender,\n            exists: true });\n\n        return _serialNo;\n    }\n\n    function setItemOrder(string _serialNo, string _signedOrder)\n        public returns (string) {\n        // Add an items order to jewelleries list\n        jewelleries[_serialNo].order = Record({\n            id: _serialNo, object: _signedOrder, createdBy: msg.sender,\n            exists: true });\n\n        return _serialNo;\n    }\n\n    function setItemOrderProduct(string _serialNo, string _signedOrderProduct)\n        public returns (string) {\n        // Add an items order product to jewelleries list\n        jewelleries[_serialNo].orderProduct = Record({\n            id: _serialNo, object: _signedOrderProduct, createdBy: msg.sender,\n            exists: true });\n\n        return _serialNo;\n    }\n\n    function setItemDelivery(string _serialNo, string _signedDelivery)\n        public returns (string) {\n        // Add an items delivery to jewelleries list\n        jewelleries[_serialNo].delivery = Record({\n            id: _serialNo, object: _signedDelivery, createdBy: msg.sender,\n            exists: true });\n\n        return _serialNo;\n    }\n\n    function setItemValidations(string _serialNo, string _signedValidation)\n        public returns (string) {\n        // Add an items validations to jewelleries list\n        jewelleries[_serialNo].validations.push(Record({\n            id: _serialNo, object: _signedValidation, createdBy: msg.sender,\n            exists: true }));\n\n        return _serialNo;\n    }\n\n    function setItemValueAddition(string _serialNo, string _signedWIP)\n        public returns (string) {\n        // Add an items value addition to jewelleries list\n        jewelleries[_serialNo].valueAddition = Record({\n            id: _serialNo, object: _signedWIP, createdBy: msg.sender,\n            exists: true });\n\n        return _serialNo;\n    }\n\n    function setItemOwnership(string _serialNo, string _signedOwnership)\n        public returns (string) {\n        // Add an items ownership to jewelleries list\n        jewelleries[_serialNo].ownership = Record({\n            id: _serialNo, object: _signedOwnership, createdBy: msg.sender,\n            exists: true });\n\n        return _serialNo;\n    }\n\n    function getProductDesign(string _sku) public view returns (string) {\n        return designs[_sku].object;\n    }\n\n    function getItemDesign(string _serialNo) public view returns (string) {\n        return jewelleries[_serialNo].design.object;\n    }\n\n    function getItemOrder(string _serialNo) public view returns (string) {\n        return jewelleries[_serialNo].order.object;\n    }\n\n    function getItemOrderProduct(string _serialNo)\n        public view returns (string) {\n        return jewelleries[_serialNo].orderProduct.object;\n    }\n\n    function getItemDelivery(string _serialNo)\n        public view returns (string) {\n        return jewelleries[_serialNo].delivery.object;\n    }\n\n    function getItemValidations(string _serialNo)\n        public view returns (string prod, string wip) {\n        return (jewelleries[_serialNo].validations[0].object,\n            jewelleries[_serialNo].validations[1].object);\n    }\n\n    function getItemValueAddition(string _serialNo)\n        public view returns (string) {\n        return jewelleries[_serialNo].valueAddition.object;\n    }\n\n    function getItemOwnership(string _serialNo)\n        public view returns (string) {\n        return jewelleries[_serialNo].ownership.object;\n    }\n\n}",
  "sourcePath": "/home/antoroko/Desktop/Thesis/project/provJewellery/contracts/ProvJewellery.sol",
  "compiler": {
    "name": "solc",
    "version": "0.4.23+commit.124ca40d.Emscripten.clang"
  },
  "schemaVersion": "2.0.0",
  "updatedAt": "2018-05-20T11:28:22.907Z"
}