{
  "contractName": "ProvJewellery",
  "abi": [
    {
      "constant": false,
      "inputs": [
        {
          "name": "_sku",
          "type": "string"
        },
        {
          "name": "_signedDesign",
          "type": "string"
        }
      ],
      "name": "setProductDesign",
      "outputs": [
        {
          "name": "",
          "type": "string"
        }
      ],
      "payable": false,
      "stateMutability": "nonpayable",
      "type": "function"
    },
    {
      "constant": false,
      "inputs": [
        {
          "name": "_serialNo",
          "type": "string"
        },
        {
          "name": "_signedDelivery",
          "type": "string"
        }
      ],
      "name": "setItemDelivery",
      "outputs": [
        {
          "name": "",
          "type": "string"
        }
      ],
      "payable": false,
      "stateMutability": "nonpayable",
      "type": "function"
    },
    {
      "constant": false,
      "inputs": [
        {
          "name": "_serialNo",
          "type": "string"
        },
        {
          "name": "_signedValidation",
          "type": "string"
        }
      ],
      "name": "setItemValidations",
      "outputs": [
        {
          "name": "",
          "type": "string"
        }
      ],
      "payable": false,
      "stateMutability": "nonpayable",
      "type": "function"
    },
    {
      "constant": false,
      "inputs": [
        {
          "name": "_serialNo",
          "type": "string"
        },
        {
          "name": "_signedWIP",
          "type": "string"
        }
      ],
      "name": "setItemValueAddition",
      "outputs": [
        {
          "name": "",
          "type": "string"
        }
      ],
      "payable": false,
      "stateMutability": "nonpayable",
      "type": "function"
    },
    {
      "constant": false,
      "inputs": [
        {
          "name": "_serialNo",
          "type": "string"
        },
        {
          "name": "_signedOwnership",
          "type": "string"
        }
      ],
      "name": "setItemOwnership",
      "outputs": [
        {
          "name": "",
          "type": "string"
        }
      ],
      "payable": false,
      "stateMutability": "nonpayable",
      "type": "function"
    },
    {
      "constant": true,
      "inputs": [
        {
          "name": "_sku",
          "type": "string"
        }
      ],
      "name": "getProductDesign",
      "outputs": [
        {
          "name": "",
          "type": "string"
        }
      ],
      "payable": false,
      "stateMutability": "view",
      "type": "function"
    },
    {
      "constant": true,
      "inputs": [
        {
          "name": "_serialNo",
          "type": "string"
        }
      ],
      "name": "getItemDelivery",
      "outputs": [
        {
          "name": "",
          "type": "string"
        }
      ],
      "payable": false,
      "stateMutability": "view",
      "type": "function"
    },
    {
      "constant": true,
      "inputs": [
        {
          "name": "_serialNo",
          "type": "string"
        }
      ],
      "name": "getItemProdValidation",
      "outputs": [
        {
          "name": "",
          "type": "string"
        }
      ],
      "payable": false,
      "stateMutability": "view",
      "type": "function"
    },
    {
      "constant": true,
      "inputs": [
        {
          "name": "_serialNo",
          "type": "string"
        }
      ],
      "name": "getItemWipValidation",
      "outputs": [
        {
          "name": "",
          "type": "string"
        }
      ],
      "payable": false,
      "stateMutability": "view",
      "type": "function"
    },
    {
      "constant": true,
      "inputs": [
        {
          "name": "_serialNo",
          "type": "string"
        }
      ],
      "name": "getItemValueAddition",
      "outputs": [
        {
          "name": "",
          "type": "string"
        }
      ],
      "payable": false,
      "stateMutability": "view",
      "type": "function"
    },
    {
      "constant": true,
      "inputs": [
        {
          "name": "_serialNo",
          "type": "string"
        }
      ],
      "name": "getItemOwnership",
      "outputs": [
        {
          "name": "",
          "type": "string"
        }
      ],
      "payable": false,
      "stateMutability": "view",
      "type": "function"
    }
  ],
  "bytecode": "0x608060405234801561001057600080fd5b50611aaf806100206000396000f3006080604052600436106100af576000357c0100000000000000000000000000000000000000000000000000000000900463ffffffff16806307caf9b4146100b457806328510d5e146101dc57806348eb1eff146103045780634d6f267a146103e657806387194cde1461050e57806388459738146105f0578063890da5d214610718578063968eeb1c146107fa578063d4e468aa14610922578063fb6055b414610a04578063fca926ed14610ae6575b600080fd5b3480156100c057600080fd5b50610161600480360381019080803590602001908201803590602001908080601f0160208091040260200160405190810160405280939291908181526020018383808284378201915050505050509192919290803590602001908201803590602001908080601f0160208091040260200160405190810160405280939291908181526020018383808284378201915050505050509192919290505050610bc8565b6040518080602001828103825283818151815260200191508051906020019080838360005b838110156101a1578082015181840152602081019050610186565b50505050905090810190601f1680156101ce5780820380516001836020036101000a031916815260200191505b509250505060405180910390f35b3480156101e857600080fd5b50610289600480360381019080803590602001908201803590602001908080601f0160208091040260200160405190810160405280939291908181526020018383808284378201915050505050509192919290803590602001908201803590602001908080601f0160208091040260200160405190810160405280939291908181526020018383808284378201915050505050509192919290505050610d4b565b6040518080602001828103825283818151815260200191508051906020019080838360005b838110156102c95780820151818401526020810190506102ae565b50505050905090810190601f1680156102f65780820380516001836020036101000a031916815260200191505b509250505060405180910390f35b34801561031057600080fd5b5061036b600480360381019080803590602001908201803590602001908080601f0160208091040260200160405190810160405280939291908181526020018383808284378201915050505050509192919290505050610ea3565b6040518080602001828103825283818151815260200191508051906020019080838360005b838110156103ab578082015181840152602081019050610390565b50505050905090810190601f1680156103d85780820380516001836020036101000a031916815260200191505b509250505060405180910390f35b3480156103f257600080fd5b50610493600480360381019080803590602001908201803590602001908080601f0160208091040260200160405190810160405280939291908181526020018383808284378201915050505050509192919290803590602001908201803590602001908080601f0160208091040260200160405190810160405280939291908181526020018383808284378201915050505050509192919290505050610fb6565b6040518080602001828103825283818151815260200191508051906020019080838360005b838110156104d35780820151818401526020810190506104b8565b50505050905090810190601f1680156105005780820380516001836020036101000a031916815260200191505b509250505060405180910390f35b34801561051a57600080fd5b50610575600480360381019080803590602001908201803590602001908080601f016020809104026020016040519081016040528093929190818152602001838380828437820191505050505050919291929050505061110e565b6040518080602001828103825283818151815260200191508051906020019080838360005b838110156105b557808201518184015260208101905061059a565b50505050905090810190601f1680156105e25780820380516001836020036101000a031916815260200191505b509250505060405180910390f35b3480156105fc57600080fd5b5061069d600480360381019080803590602001908201803590602001908080601f0160208091040260200160405190810160405280939291908181526020018383808284378201915050505050509192919290803590602001908201803590602001908080601f0160208091040260200160405190810160405280939291908181526020018383808284378201915050505050509192919290505050611221565b6040518080602001828103825283818151815260200191508051906020019080838360005b838110156106dd5780820151818401526020810190506106c2565b50505050905090810190601f16801561070a5780820380516001836020036101000a031916815260200191505b509250505060405180910390f35b34801561072457600080fd5b5061077f600480360381019080803590602001908201803590602001908080601f0160208091040260200160405190810160405280939291908181526020018383808284378201915050505050509192919290505050611405565b6040518080602001828103825283818151815260200191508051906020019080838360005b838110156107bf5780820151818401526020810190506107a4565b50505050905090810190601f1680156107ec5780820380516001836020036101000a031916815260200191505b509250505060405180910390f35b34801561080657600080fd5b506108a7600480360381019080803590602001908201803590602001908080601f0160208091040260200160405190810160405280939291908181526020018383808284378201915050505050509192919290803590602001908201803590602001908080601f0160208091040260200160405190810160405280939291908181526020018383808284378201915050505050509192919290505050611534565b6040518080602001828103825283818151815260200191508051906020019080838360005b838110156108e75780820151818401526020810190506108cc565b50505050905090810190601f1680156109145780820380516001836020036101000a031916815260200191505b509250505060405180910390f35b34801561092e57600080fd5b50610989600480360381019080803590602001908201803590602001908080601f016020809104026020016040519081016040528093929190818152602001838380828437820191505050505050919291929050505061168c565b6040518080602001828103825283818151815260200191508051906020019080838360005b838110156109c95780820151818401526020810190506109ae565b50505050905090810190601f1680156109f65780820380516001836020036101000a031916815260200191505b509250505060405180910390f35b348015610a1057600080fd5b50610a6b600480360381019080803590602001908201803590602001908080601f016020809104026020016040519081016040528093929190818152602001838380828437820191505050505050919291929050505061179f565b6040518080602001828103825283818151815260200191508051906020019080838360005b83811015610aab578082015181840152602081019050610a90565b50505050905090810190601f168015610ad85780820380516001836020036101000a031916815260200191505b509250505060405180910390f35b348015610af257600080fd5b50610b4d600480360381019080803590602001908201803590602001908080601f01602080910402602001604051908101604052809392919081815260200183838082843782019150505050505091929192905050506118ce565b6040518080602001828103825283818151815260200191508051906020019080838360005b83811015610b8d578082015181840152602081019050610b72565b50505050905090810190601f168015610bba5780820380516001836020036101000a031916815260200191505b509250505060405180910390f35b60606001836040518082805190602001908083835b602083101515610c025780518252602082019150602081019050602083039250610bdd565b6001836020036101000a03801982511681845116808217855250505050505090500191505090815260200160405180910390206004016080604051908101604052808581526020018481526020013373ffffffffffffffffffffffffffffffffffffffff16815260200160011515815250908060018154018082558091505090600182039060005260206000209060030201600090919290919091506000820151816000019080519060200190610cba9291906119de565b506020820151816001019080519060200190610cd79291906119de565b5060408201518160020160006101000a81548173ffffffffffffffffffffffffffffffffffffffff021916908373ffffffffffffffffffffffffffffffffffffffff16021790555060608201518160020160146101000a81548160ff02191690831515021790555050505082905092915050565b60606080604051908101604052808481526020018381526020013373ffffffffffffffffffffffffffffffffffffffff168152602001600115158152506001846040518082805190602001908083835b602083101515610dc05780518252602082019150602081019050602083039250610d9b565b6001836020036101000a03801982511681845116808217855250505050505090500191505090815260200160405180910390206001016000820151816000019080519060200190610e129291906119de565b506020820151816001019080519060200190610e2f9291906119de565b5060408201518160020160006101000a81548173ffffffffffffffffffffffffffffffffffffffff021916908373ffffffffffffffffffffffffffffffffffffffff16021790555060608201518160020160146101000a81548160ff02191690831515021790555090505082905092915050565b60606001826040518082805190602001908083835b602083101515610edd5780518252602082019150602081019050602083039250610eb8565b6001836020036101000a03801982511681845116808217855250505050505090500191505090815260200160405180910390206001016001018054600181600116156101000203166002900480601f016020809104026020016040519081016040528092919081815260200182805460018160011615610100020316600290048015610faa5780601f10610f7f57610100808354040283529160200191610faa565b820191906000526020600020905b815481529060010190602001808311610f8d57829003601f168201915b50505050509050919050565b60606080604051908101604052808481526020018381526020013373ffffffffffffffffffffffffffffffffffffffff168152602001600115158152506001846040518082805190602001908083835b60208310151561102b5780518252602082019150602081019050602083039250611006565b6001836020036101000a0380198251168184511680821785525050505050509050019150509081526020016040518091039020600501600082015181600001908051906020019061107d9291906119de565b50602082015181600101908051906020019061109a9291906119de565b5060408201518160020160006101000a81548173ffffffffffffffffffffffffffffffffffffffff021916908373ffffffffffffffffffffffffffffffffffffffff16021790555060608201518160020160146101000a81548160ff02191690831515021790555090505082905092915050565b60606001826040518082805190602001908083835b6020831015156111485780518252602082019150602081019050602083039250611123565b6001836020036101000a03801982511681845116808217855250505050505090500191505090815260200160405180910390206008016001018054600181600116156101000203166002900480601f0160208091040260200160405190810160405280929190818152602001828054600181600116156101000203166002900480156112155780601f106111ea57610100808354040283529160200191611215565b820191906000526020600020905b8154815290600101906020018083116111f857829003601f168201915b50505050509050919050565b6060600115156000846040518082805190602001908083835b60208310151561125f578051825260208201915060208101905060208303925061123a565b6001836020036101000a038019825116818451168082178552505050505050905001915050908152602001604051809103902060020160149054906101000a900460ff161515141515156112b257600080fd5b6080604051908101604052808481526020018381526020013373ffffffffffffffffffffffffffffffffffffffff168152602001600115158152506000846040518082805190602001908083835b6020831015156113255780518252602082019150602081019050602083039250611300565b6001836020036101000a038019825116818451168082178552505050505050905001915050908152602001604051809103902060008201518160000190805190602001906113749291906119de565b5060208201518160010190805190602001906113919291906119de565b5060408201518160020160006101000a81548173ffffffffffffffffffffffffffffffffffffffff021916908373ffffffffffffffffffffffffffffffffffffffff16021790555060608201518160020160146101000a81548160ff02191690831515021790555090505082905092915050565b60606001826040518082805190602001908083835b60208310151561143f578051825260208201915060208101905060208303925061141a565b6001836020036101000a0380198251168184511680821785525050505050509050019150509081526020016040518091039020600401600181548110151561148357fe5b90600052602060002090600302016001018054600181600116156101000203166002900480601f0160208091040260200160405190810160405280929190818152602001828054600181600116156101000203166002900480156115285780601f106114fd57610100808354040283529160200191611528565b820191906000526020600020905b81548152906001019060200180831161150b57829003601f168201915b50505050509050919050565b60606080604051908101604052808481526020018381526020013373ffffffffffffffffffffffffffffffffffffffff168152602001600115158152506001846040518082805190602001908083835b6020831015156115a95780518252602082019150602081019050602083039250611584565b6001836020036101000a038019825116818451168082178552505050505050905001915050908152602001604051809103902060080160008201518160000190805190602001906115fb9291906119de565b5060208201518160010190805190602001906116189291906119de565b5060408201518160020160006101000a81548173ffffffffffffffffffffffffffffffffffffffff021916908373ffffffffffffffffffffffffffffffffffffffff16021790555060608201518160020160146101000a81548160ff02191690831515021790555090505082905092915050565b60606001826040518082805190602001908083835b6020831015156116c657805182526020820191506020810190506020830392506116a1565b6001836020036101000a03801982511681845116808217855250505050505090500191505090815260200160405180910390206005016001018054600181600116156101000203166002900480601f0160208091040260200160405190810160405280929190818152602001828054600181600116156101000203166002900480156117935780601f1061176857610100808354040283529160200191611793565b820191906000526020600020905b81548152906001019060200180831161177657829003601f168201915b50505050509050919050565b60606001826040518082805190602001908083835b6020831015156117d957805182526020820191506020810190506020830392506117b4565b6001836020036101000a0380198251168184511680821785525050505050509050019150509081526020016040518091039020600401600081548110151561181d57fe5b90600052602060002090600302016001018054600181600116156101000203166002900480601f0160208091040260200160405190810160405280929190818152602001828054600181600116156101000203166002900480156118c25780601f10611897576101008083540402835291602001916118c2565b820191906000526020600020905b8154815290600101906020018083116118a557829003601f168201915b50505050509050919050565b60606000826040518082805190602001908083835b60208310151561190857805182526020820191506020810190506020830392506118e3565b6001836020036101000a03801982511681845116808217855250505050505090500191505090815260200160405180910390206001018054600181600116156101000203166002900480601f0160208091040260200160405190810160405280929190818152602001828054600181600116156101000203166002900480156119d25780601f106119a7576101008083540402835291602001916119d2565b820191906000526020600020905b8154815290600101906020018083116119b557829003601f168201915b50505050509050919050565b828054600181600116156101000203166002900490600052602060002090601f016020900481019282601f10611a1f57805160ff1916838001178555611a4d565b82800160010185558215611a4d579182015b82811115611a4c578251825591602001919060010190611a31565b5b509050611a5a9190611a5e565b5090565b611a8091905b80821115611a7c576000816000905550600101611a64565b5090565b905600a165627a7a723058201dd7225ebd8eff639850e11f3a5bf02d4606dd1ce2b7274088cf45d2e408bf4a0029",
  "source": "pragma solidity ^0.4.18;\n\ncontract ProvJewellery {\n\n    struct Record {\n        string id;\n        string object;\n        address createdBy;\n        bool exists;\n    }\n\n    struct Jewellery {\n        string serialNo;\n        Record delivery;\n        Record[] validations;\n        Record valueAddition;\n        Record ownership;\n        bool exists;\n    }\n\n    mapping(string => Record) designs;\n    mapping(string => Jewellery) jewelleries;\n\n    function setProductDesign(string _sku, string _signedDesign)\n        public returns (string) {\n        // Prevent overwriting a product design\n        require(designs[_sku].exists != true);\n\n        // Add product design to blockchain\n        designs[_sku] = Record({\n            id: _sku, object: _signedDesign, createdBy: msg.sender,\n            exists: true });\n\n        return _sku;\n    }\n\n    function setItemDelivery(string _serialNo, string _signedDelivery)\n        public returns (string) {\n        // Add an items delivery to jewelleries list\n        jewelleries[_serialNo].delivery = Record({\n            id: _serialNo, object: _signedDelivery, createdBy: msg.sender,\n            exists: true });\n\n        return _serialNo;\n    }\n\n    function setItemValidations(string _serialNo, string _signedValidation)\n        public returns (string) {\n        // Add an items validations to jewelleries list\n        jewelleries[_serialNo].validations.push(Record({\n            id: _serialNo, object: _signedValidation, createdBy: msg.sender,\n            exists: true }));\n\n        return _serialNo;\n    }\n\n    function setItemValueAddition(string _serialNo, string _signedWIP)\n        public returns (string) {\n        // Add an items value addition to jewelleries list\n        jewelleries[_serialNo].valueAddition = Record({\n            id: _serialNo, object: _signedWIP, createdBy: msg.sender,\n            exists: true });\n\n        return _serialNo;\n    }\n\n    function setItemOwnership(string _serialNo, string _signedOwnership)\n        public returns (string) {\n        // Add an items ownership to jewelleries list\n        jewelleries[_serialNo].ownership = Record({\n            id: _serialNo, object: _signedOwnership, createdBy: msg.sender,\n            exists: true });\n\n        return _serialNo;\n    }\n\n    function getProductDesign(string _sku) public view returns (string) {\n        return designs[_sku].object;\n    }\n\n    function getItemDelivery(string _serialNo)\n        public view returns (string) {\n        return jewelleries[_serialNo].delivery.object;\n    }\n\n    function getItemProdValidation(string _serialNo)\n        public view returns (string) {\n        return jewelleries[_serialNo].validations[0].object;\n    }\n\n    function getItemWipValidation(string _serialNo)\n        public view returns (string) {\n        return jewelleries[_serialNo].validations[1].object;\n    }\n\n    function getItemValueAddition(string _serialNo)\n        public view returns (string) {\n        return jewelleries[_serialNo].valueAddition.object;\n    }\n\n    function getItemOwnership(string _serialNo)\n        public view returns (string) {\n        return jewelleries[_serialNo].ownership.object;\n    }\n\n}",
  "sourcePath": "/home/antoroko/Desktop/Thesis/project/provJewellery/contracts/ProvJewellery.sol",
  "compiler": {
    "name": "solc",
    "version": "0.4.23+commit.124ca40d.Emscripten.clang"
  },
  "schemaVersion": "2.0.0",
  "updatedAt": "2018-09-30T10:24:00.499Z"
}